:020000040000fa
:080000000002040000000000f2
:020000040000fa
:100008009a0200009a0200009a0200009a02000078
:100018009a0200009a0200009a0200009a02000068
:100028009a0200009a0200009a0200009a02000058
:100038009a0200009a0200009a0200009a02000048
:020000040000fa
:020000040000fa
:100400000f8020000eff27000e0188000000000072
:10041000000020000000e000020032000001200087
:10042000200288000c00070020e5200001002000c9
:1004300011000700000020000000e0000200320070
:100440000000020000000000180e02000000000082
:100450000040da000000fe004440a9000000200037
:100460000000e0000300320000002000a00188002e
:100470004440a80000000600910188008000780038
:100480000000eb0015003700e280400032a0b4000d
:100490009101ba00e280400032a0b4009102ba009b
:1004a000e280400032a0b4000002eb00472bde00e7
:1004b000f507b200602ce10004003a000059eb009f
:1004c0008301e900fdff3e00040037006128e100e0
:1004d000010032000082eb00040007001101ba00a5
:1004e0000200e000e8ff3a00000006003159ba00bf
:1004f0008301e9000c0032002159ba008301e900b0
:10050000080032000400e00003003a00e2804000ee
:1005100032a0b400f5ff370011d9ba008301e90019
:10052000faff3a008100e800e180400032a0b40008
:0c053000000006000040da000000fe00a1
:020000040000fa
:10053c000000fa0004042000040078000080fa0097
:10054c00000006000200fa000082eb00040f7800a5
:10055c00b00407006000b800440407006000b80055
:10056c00420407006000b80040040700002020008f
:10057c00410020003d0407006000b8003b04070068
:10058c006000b800390407006000b80037040700a9
:10059c002055250051022000340407006000b800eb
:1005ac003204070020c42700810820002f04070014
:1005bc006000b8002d040700560407000002780004
:1005cc00040f7800545525009e027800848f520049
:1005dc000200320014c0b300010037000042eb00ef
:1005ec00044078000080fa00000006000400fa00c5
:1005fc00100798000082eb00040f780010552000c3
:10060c000102200019040700109723008108200024
:10061c001604070010aa2000010220001304070092
:10062c0010972300810820001004070090722e0000
:10063c00810a20000d0407006000b8000b040700bd
:10064c006000b800090407006000b8000704070048
:10065c006000b800050407006000b8000304070040
:10066c001e009000fc0307006000b800ff030700a9
:10067c006000b800fd0307006000b800fb03070032
:10068c000020200041002000f80307006000b800a3
:10069c00f60307006000b800f40307006000b80020
:1006ac00f20307002094230001082000ef03070049
:1006bc006000b800ed03070020c42700810820006b
:1006cc00ea0307006000b800e80307001104070004
:1006dc0000027800040f7800040028001e0f62004e
:1006ec001e027800e00f52000200320014c0b3006a
:1006fc00010037000042eb00044078000080fa0053
:10070c00000006000c00fa00400798005107980002
:10071c006022b800048fbe0070882f0001022000f8
:10072c00d20307004e029000de029000442bdd0045
:10073c00cc23de00870373004423dd0004ff2f006d
:10074c00f500200006007800870378000403780089
:10075c000502780006036000048263000500200097
:10076c00c022dd0004002000048fbe006132b800fe
:10077c001e1f72001e9772006400200005022000ec
:10078c001e1f72001e9772001e00be00b7030700ea
:10079c006000b800b50307004e029000de02900026
:1007ac00cc2bde00c428dd004c23de000683700059
:1007bc0004ff200005002000060078008703780065
:1007cc0004037800050278000603600004826300cd
:1007dc0005002000c022dd0004002000048fbe00b4
:1007ec006132b8001e1f72001e97720004002000b8
:1007fc00050220001e1f72001e9772001e00be0014
:10080c009a030700002a20008108200097030700a4
:10081c004e029000de02900062024200e0824a002a
:10082c004407980055079800002020004100200044
:10083c008e0307006000b8008c0307006000b8004e
:10084c008a0307006000b8008803070060b928001d
:10085c00a10b2000850307006000b800830307008c
:10086c006000b800810307006000b8007f03070038
:10087c006000b8007d0307006000b8007b03070030
:10088c00a4030700000278003407980060bb200026
:10089c00a10b2000750307006000b800730307006c
:1008ac006000b800710307006000b8006f03070018
:1008bc006000b8006d0307006000b8006b03070010
:1008cc009403070000027800240798002e02900081
:1008dc00be0290000400be000080fa00000006007a
:1008ec001000fa00500798006107980072079800f2
:1008fc006022b80014079800250798000404200013
:10090c00040f780070882f000102200057030700a5
:10091c005e029000ee029000442bdd00cc23de0042
:10092c00870373004423dd0004ff2f00f500200033
:10093c00060078000703780084037800050278002d
:10094c00070060000402630005002000c022dd00e7
:10095c00040020000403be006102b800040373000d
:10096c008583730016079800270798001e039000d4
:10097c00ae03900064002000050220000402730006
:10098c008582730014079800250798001e009000bc
:10099c00ae009000350307006000b8003303070079
:1009ac005b0037005e029000ee029000cc2bde0064
:1009bc00c428dd004c23de000683700004ff2000f9
:1009cc0005002000060078000703780084037800f7
:1009dc000502780007006000040263000500200097
:1009ec00c022dd00040020000403be006102b80038
:1009fc00040373008583730016079800270798007b
:100a0c001e039000ae03900004002000050220009d
:100a1c000402730085827300140798002507980060
:100a2c001e009000ae00900010030700002a20006a
:100a3c00810820000d0307005e029000ee0290007a
:100a4c0062024200e0824a00540798006507980051
:100a5c000020200041002000040307006000b800c3
:100a6c00020307006000b800000307006000b80034
:100a7c00fe02070060b92800a10b2000fb02070052
:100a8c006000b800f90207006000b800f702070028
:100a9c006000b800f50207006000b800f302070020
:100aac006000b800f10207001a030700000278008a
:100abc004407980060bb2000a10b2000eb0207004c
:100acc006000b800e90207006000b800e702070008
:100adc006000b800e50207006000b800e302070000
:100aec006000b800e10207000a030700000278006a
:100afc00340798003e029000ce0290007e039000d6
:100b0c00048bbe007e0290006402420074079800c1
:100b1c001e02780004f0a7000402ea000402ea00b6
:100b2c004f22de00044278001e0fe900e04f520015
:100b3c009cff3a000080fa00000006001400fa0046
:100b4c0070079800010f9800120f98006022b800ef
:100b5c00140798002507980004042000040f78005f
:100b6c00a001200041022000c0020700c0fa2000b2
:100b7c0001022000bd020700a09423008108200080
:100b8c00ba020700c02a200081082000b702070023
:100b9c000d0137001e8fe90000302000b10e20003f
:100bac00b20207001e0a90001403be00360798001c
:100bbc00470798001e0a900064024200140f980028
:100bcc001e0a90001403be00560798006707980091
:100bdc001e0a900064024200140f98003e0290001e
:100bec00ce029000442bdd00cc23de008703730083
:100bfc004423dd0004ff2f00f500200006007800e0
:100c0c000703780084037800050278000700600071
:100c1c000402630005002000c022dd000400200057
:100c2c000403be006102b8000403730085837300e3
:100c3c0016079800270798001e039000ae0390003b
:100c4c00040020000502200004027300858273005a
:100c5c0014079800250798001e009000ae00900025
:100c6c00820207003e029000ce029000cc2bde00e8
:100c7c00c428dd004c23de000683700004ff2f0027
:100c8c00f500200006007800070378008403780044
:100c9c0005027800070060000402630005002000d4
:100cac00c022dd00040020000403be006102b80075
:100cbc0004037300858373001607980027079800b8
:100ccc001e039000ae0390001400200005022000cb
:100cdc00040273008582730014079800250798009e
:100cec001e009000ae009000600207005e029000b3
:100cfc00ee029000442bdd00cc23de008703730052
:100d0c004423dd0004ff2f00f500200006007800ce
:100d1c000703780084037800050278000700600060
:100d2c000402630005002000c022dd000400200046
:100d3c000403be006102b8000403730085837300d2
:100d4c0016079800270798001e039000ae0390002a
:100d5c002400200005022000040273008582730029
:100d6c0014079800250798001e009000ae00900014
:100d7c003e0207005e029000ee029000cc2bde00db
:100d8c00c428dd004c23de000683700004ff2f0016
:100d9c00f500200006007800070378008403780033
:100dac0005027800070060000402630005002000c3
:100dbc00c022dd00040020000403be006102b80064
:100dcc0004037300858373001607980027079800a7
:100ddc001e039000ae03900034002000050220009a
:100dec00040273008582730014079800250798008d
:100dfc001e009000ae0090001c02070000b0200006
:100e0c00b10b2000190207006000b80017020700a0
:100e1c006000b8001502070010b02900b10b2000cb
:100e2c00120207006000b800100207006000b80052
:100e3c000e02070020b02000b10b20000b020700af
:100e4c006000b800090207006000b8000702070044
:100e5c0030b02900b10b2000040207006000b8007c
:100e6c00020207006000b800000207007e0290003a
:100e7c008e0a9000442bdd00cc23de008703730028
:100e8c004423dd0004ff2f00f5002000060078004d
:100e9c0007037800840378000502780007006000df
:100eac000402630005002000c022dd0004002000c5
:100ebc000403be006102b800040373008583730051
:100ecc0016079800270798001e039000ae039000a9
:100edc004400200005022000040273008582730088
:100eec0014079800250798001e009000ae00900093
:100efc00de0107007e0290008e0a9000cc2bde00f3
:100f0c00c428dd004c23de000683700004ff2f0094
:100f1c00f5002000060078000703780084037800b1
:100f2c000502780007006000040263000500200041
:100f3c00c022dd00040020000403be006102b800e2
:100f4c000403730085837300160798002707980025
:100f5c001e039000ae0390005400200005022000f8
:100f6c00040273008582730014079800250798000b
:100f7c001e009000ae009000bc01070040952300bd
:100f8c0081082000b9010700509623008108200039
:100f9c00b60107007e0290008e0a900064024200a7
:100fac00e0824a0074079800050f9800100020009a
:100fbc008efd070000427800e04f52000200320024
:100fcc0014c0b300040037001e027800e00f52007a
:100fdc00f0fe3a000042eb00044078000080fa007a
:100fec00000006000000fa00a00e200041022000c4
:100ffc009e0107006000b8009c010700a09423002c
:10100c0081082000990107006000b80097010700d3
:10101c00c02b200075fd070000427800e04f520005
:10102c000200320014c0b300010037000042eb0094
:10103c00044078000080fa00000006000000000068
:10104c00c00000000002040000000000d2020000fa
:10105c00d2020000d2020000d2020000d202000034
:10106c00d2020000d2020000d2020000d202000024
:10107c00d2020000d2020000d2020000d202000014
:10108c00d2020000d2020000d2020000d202000004
:1012cc00d2020000d2020000ffffff00ffffff0070
:1012dc00ffffff00ffffff00ffffff00ffffff000e
:1012ec00ffffff00ffffff00ffffff00ffffff00fe
:1012fc00ffffff00ffffff00ffffff00ffffff00ee
:10130c00ffffff00ffffff00ffffff00ffffff00dd
:10131c00ffffff00ffffff00ffffff00ffffff00cd
:10132c00ffffff00ffffff00ffffff00ffffff00bd
:10133c00ffffff00ffffff00ffffff00ffffff00ad
:10134c00ffffff0000020000800000000f002100e2
:10135c000eff2c000e018800000000000000200091
:10136c000000e00002003200000120002002880092
:10137c000c000700a02f2000010020000f00070028
:10138c00000020000000e00002003200000002001b
:10139c0000000000d6020200000000000040da004d
:1013ac000000fe00200020000000e00002003200df
:1013bc00100020009001880000000600a1028800a7
:1013cc00800078000000eb001a003700e28040003b
:1013dc0054a0b4009101ba00e280400054a0b400c3
:1013ec009102ba00e280400054a0b4000002eb006d
:1013fc00472bde00f507b200a6018800602ce10047
:10140c0008003a000049eb000201e8000200390034
:10141c003420ec0002f0a0008301e900f9ff3e004b
:10142c00040037006128e100010032000082eb006b
:10143c00040007001101ba000200e000e3ff3a00cb
:10144c000000060004d0a300e20f49001c00390084
:10145c00810278003549ba000201e8000200390027
:10146c003420ec0002f0a0008301e9000f003200f0
:10147c002549ba000201e800020039003420ec00d2
:10148c0002f0a0008301e900080032000400e00033
:10149c000600320015c9ba000201e800020039004a
:1014ac003420ec0002f0a0008301e9008180e80008
:1014bc0054a0b4000300e000e2ff3a000000060074
:1014cc009102ba00055978008301e900f7ff320058
:1014dc00c82ade00055978008301e900f3ff3200c9
:1014ec000400e000f1ff320011d9ba00eeff370022
:1014fc000040da000000fe000000fa0030cea90027
:10150c00401f090000000000a07180004600de00b2
:10151c00614060000004a200614060000080fb009c
:10152c00610060004600dd00a2718000f1fb2f001d
:10153c008100610001007000a0718800f0ff37008d
:10154c0000000000ffffff00ffffff0080570500b9
:10155c0040000000ffffff00ffffff00ffffff0048
:10156c00ffffff00ffffff00ffffff00ffffff007b
:10157c00ffffff00ffffff00ffffff00ffffff006b
:10158c00ffffff00ffffff00ffffff00ffffff005b
:10159c00ffffff00ffffff00ffffff00ffffff004b
:1015ac00ffffff00ffffff00ffffff00ffffff003b
:1015bc00ffffff00ffffff00ffffff00ffffff002b
:1015cc00ffffff00ffffff00ffffff00ffffff001b
:1015dc00ffffff00ffffff00ffffff00ffffff000b
:1015ec00ffffff00ffffff00ffffff00ffffff00fb
:1015fc00ffffff00ffffff00ffffff00ffffff00eb
:10160c00ffffff00ffffff00ffffff00ffffff00da
:10161c00ffffff00ffffff00ffffff00ffffff00ca
:10162c00ffffff00ffffff00ffffff00ffffff00ba
:10163c00ffffff00cfff0000ffff00007fff000057
:10164c003fff0000fdff0000ffff0000ffffff0059
:10165c00ffffff00ffffff009e0f090000000000ce
:10166c000000e900fcff3a0000000600c4a2a9003b
:10167c00c402a80000000000c402a9000000000081
:10168c00c402a80000000000c402a9000000000071
:10169c00c402a80000000000c402a9000000000061
:1016ac00c402a80000000000c402a9000000000051
:1016bc00030120000000a700c4a2a8000000a6009f
:1016cc00c4a2a900c402a80000000000c402a90022
:1016dc00000000004100de008301e900f5ff3a0044
:1016ec00830020000100a700c4a2a8000100a600ee
:1016fc00c4a2a900c402a80000000000c402a900f2
:10170c0000000000c108de008301e900f5ff3a008b
:10171c0000000600c4a2a800c402a800000000003b
:10172c00c402a90000000000c4a2a900c402a800c1
:10173c0000000000c402a90000000000c402a800c0
:10174c0000000000c402a90000000000c402a800b0
:10175c0000000000c402a90000000000c402a800a0
:10176c0000000000c402a90000000000c402a80090
:10177c0000000000c402a90000000000c402a80080
:10178c0000000000c402a90000000000c402a80070
:10179c0000000000c402a90000000000c402a80060
:1017ac0000000000c402a90000000000c402a80050
:1017bc0000000000c402a90000000000c402a80040
:1017cc0000000000c402a90000000000c402a80030
:1017dc0000000000c402a900c0a2a8000000000084
:1017ec00030120000000eb004100de00c402a80051
:1017fc0000000000c2a2af0000f0a000c402a900cb
:10180c00000000008301e900f7ff3a00c0a2a90024
:10181c0000000600c4a2a900c402a900c482a90049
:10182c00c0a2a900c002a900c082a90040062000e5
:10183c00320b020000000000c482a80050002000ff
:10184c00320b020000000000c482a90040012000fd
:10185c00320b02000000000030d4240003012000f1
:10186c0000f0a700c4a2a80000f0a600c4a2a90022
:10187c00c402a80000000000c402a900000000007f
:10188c004100dd008301e900f5ff3a0010852400da
:10189c000301200000f0a700c4a2a80000f0a600dd
:1018ac00c4a2a900c402a80000000000c402a90040
:1018bc00000000004100dd008301e900f5ff3a0063
:1018cc0040012000320b020000000000c482a8007e
:1018dc00c0212000320b020000000000c4a2a900ad
:1018ec00c402a80000000000c402a900000000000f
:1018fc00c402a80000000000c402a90000000000ff
:10190c00c402a80000000000c402a90000000000ee
:10191c00c402a80000000000c402a90000000000de
:10192c00c402a80000000000c402a90000000000ce
:10193c0000000600c482a90020032000320b020024
:10194c0000000000c482a800c0a2a800c002a80029
:10195c00c082a800000006000c00fa0040079800a6
:10196c00510798004e029000de0290002407980068
:10197c00350798006e429000044378002503200040
:10198c00864a78002e0290001482ba001407980040
:10199c002e0290001402ba00040f78001e02be0042
:1019ac000400be000080fa00000006001602fa00d7
:1019bc00000f9a00110f9a00220f9a00dcfa070010
:1019cc000002780074079800defa070000427800e5
:1019dc00e04f52000200320014c0b3008e003700fa
:1019ec0080fd070000427800e04f520002003200f8
:1019fc0024c0b300880037000e0a92009e0a9200a1
:101a0c000e0b92009e0b920062034300e0834b008e
:101a1c00060f9a00170f9a000400be00ceff0700b5
:101a2c000002be00048fbe00f4ff2f00f50f200053
:101a3c001e03be00840f5300858f5b0003003a0029
:101a4c00bcff07000042eb00730037000e0a920047
:101a5c009e0a92000e0b92009e0b920062034300b2
:101a6c00e0834b00060f9a00170f9a000400be008b
:101a7c00b9ff07000002be00240798003507980044
:101a8c005f00370070024700440798000002eb002b
:101a9c0064079800130037000e0a92009e0a920009
:101aac000e0b92009e0b920062034300e0834b00ee
:101abc00060f9a00170f9a000400be00a6ff07003d
:101acc000002be004e039000048bbe004e0290003c
:101adc0064024200440798006e0290000402e80081
:101aec0064079800ee0290007e029000848f5200f2
:101afc00e9ff390070024700040178001e00be00a7
:101b0c000efc070000427800e04f52000200320049
:101b1c0034c0b300400037002e0a9200e00f520090
:101b2c002a003200041120000e0242000401780049
:101b3c001e00be006afb07007002470044079800b5
:101b4c00041120000e024200540798000002eb0022
:101b5c0064079800190037004e0290001403be0071
:101b6c005e0290001402be0004026b0085826b00c2
:101b7c000482720004f0a7000402ea000402ea00e6
:101b8c004f22de0004427800ce029000e482420034
:101b9c0045079800de029000e48242005507980049
:101bac00e04f52000200320044c0b3001a0037006c
:101bbc006e0290000402e80064079800ee029000a8
:101bcc007e029000848f5200e3ff39007e02900069
:101bdc00050020002e039000be0390000402530069
:101bec0085825b0024079800350798007e029000e0
:101bfc0004024200050020001e0f42005e974a00be
:101c0c002e029000be029000e00f5200e08f5a00ae
:101c1c009cff3c0078ff3700044078000080fa00fd
:101c2c00000006000200fa00889fbe00e4042000b9
:101c3c00343a8800803e200087fe0700c0c2a9000d
:101c4c00c0e2a900c4c2a900c4e2a900120020008d
:101c5c0048822000090020000800be0053ff070046
:101c6c00004278000482fb00040f78001e0278000a
:101c7c00e10f5200f5ff32001e027800e00f520017
:101c8c0001003200c4c2a800c4e2a800005327001f
:081c9c0071fe0700ebff3700a9
:020000040000fa
:041ca400000000003c
:020000040000fa
:0200000401f009
:04000000ffff0000fe
:020000040000fa
:0200000401f009
:04000400ffff0000fa
:020000040000fa
:0200000401f009
:04000800ffff0000f6
:020000040000fa
:0200000401f009
:04000c00fbff0000f6
:020000040000fa
:0200000401f009
:040010003eff0000af
:020000040000fa
:0200000401f009
:040014007fffff006b
:020000040000fa
:0200000401f009
:04001800ffff0000e6
:020000040000fa
:0200000401f009
:04001c00dfff000002
:00000001FF
