:020000040000fa
:080000000002040000000000f2
:020000040000fa
:100400004f8220000eff27000e0188000000000030
:100410000c000700e06d2000010020001100070023
:10042000000020000000e000020032000000020096
:10043000000000004e050200000000000040da004d
:100440000000fe004440a900000020000000e00081
:100450000300320000002000a00188004440a800f2
:100460000000060091018800800078000000eb0089
:1004700015003700e280400032a0b4009101ba00bc
:10048000e280400032a0b4009102ba00e280400055
:1004900032a0b4000002eb00472bde00f507b200eb
:1004a000602ce10004003a000059eb008301e900f0
:1004b000fdff3e00040037006128e100010032002a
:1004c0000082eb00040007001101ba000200e00006
:1004d000e8ff3a00000006003159ba008301e90044
:1004e0000c0032002159ba008301e90008003200f3
:1004f0000400e00003003a00e280400032a0b400b3
:10050000f5ff370011d9ba008301e900faff3a007c
:100510008100e800e180400032a0b4000000060045
:10052000aa05040000000000c0050400000000004f
:10053000d205040000000000e405040000000000f3
:10054000f6050400000000008100d0000f077800cd
:10055000640757000e0278008f8740000f0678006e
:1005600001000900be1f78009e0f7800144188002a
:100570001408e20002003a00a44088008002eb0068
:100580000c1a780004418800041a780005017800ec
:100590008502e8000280fd0002c0b300021a780064
:1005a0006400b0004400b000001a7800001aeb00ac
:1005b000410220006101b00004824000210280005d
:1005c000011a7800a1018000011a78000141800021
:1005d0008408780000000600100888000021ef0061
:1005e000a580a800a5a0a900a5c0a9008460a900b5
:1005f0009460a800000128002008880012418000b3
:10060000a040800000097800130107000041880025
:1006100020a8ec000001b0004000b0008007780086
:1006200000400600024180000281e900500198006c
:10063000300020004041980042a0a8000021ef00b7
:100640008460a9004200f800801f7800000e20009e
:100650004260b700811f7800829fbe00849fbe0069
:10066000869fbe00889fbe008a9fbe008c9fbe00f2
:100670008e1f78003600f8003200f8002200f800e3
:100680002400f8002600f8002800f8002a00f800ee
:100690002c00f8003800f8003a00f8003c00f800a0
:1006a0003e00f8004000f8004400f8003400f80074
:1006b000004180000f0878000080e900ee0007008c
:1006c0001c08e2000200320080805700ca000700c8
:1006d00010007800c0409000600ce1000a00320079
:1006e000630ce100faff3a00d00090000100e00046
:1006f000030032008100e90051009800f4ff370048
:100700000100200041409800d30007000080e8006d
:1007100000418800900778003400f9004400f90097
:100720004000f9003e00f9003c00f9003a00f900f1
:100730003800f9002c00f9002a00f9002800f9001f
:100740002600f9002400f9002200f9003200f90027
:100750003600f9004f0778004f06be004f05be0077
:100760004f04be004f03be004f02be004f01be004b
:100770004f00be004200f90000400600801f7800d4
:100780001002800010418800000e20004260b70077
:100790004f00780000000600801f780010418000a4
:1007a000100288004f007800000006009460a90045
:1007b000024180000281e9004001980020002000f1
:1007c000404198009460a8009bff070000000600cd
:1007d0009460a900014180008180e9000101780056
:1007e000910078000080ea00c1419000621ce100a5
:1007f00006003a00c101900083016000c300980028
:1008000002003a0003002000c340980091007800e5
:100810000208e100f4ff3a009460a800000006001e
:100820009460a900014180008180e900b000980037
:100830001000e0000a00320012002000c2409800c0
:100840009460a8007cff07009460a9001000e000fd
:100850000300320012002000c2409800f8ff370069
:100860001008e8009460a800000006009460a90049
:10087000014180008180e900010278009100780048
:100880000008eb00414190006114e10005003a00ce
:10089000310190000200e10002003a000200200055
:1008a000c2409800910078000408e100f5ff3a008a
:1008b0009460a800000006008180fb000100a700f2
:1008c0008100e800e6814000020180000281e8002a
:1008d00003015100c440800004097800c240880030
:1008e0000282e900040188000080fb0000297800f2
:1008f00001297800000006002d0007004200f800e2
:1009000035000700038009003158780010002000ee
:10091000304298004200f900000006002400070061
:100920004200f8002c000700030ce10004003e0028
:1009300000c040000248780010002000010037008d
:100940000000eb004200f90000000600180007005c
:100950004200f8002000070003800900b05878002a
:100960008001eb0033429800100020004200f900a3
:10097000000006000e0007004200f8001600070005
:10098000030ce10003003e0000c04000104078006e
:10099000010037000000eb004200f90000000600f3
:1009a000030007000000eb00344090000000060048
:1009b000c4408000a44190000304e100050032001f
:1009c000140278000400e000faff3a004f00be0075
:1009d0000000eb0000000600000e20004260b7009f
:1009e00066004200a40190008301e90000000600b7
:1009f000e040880000000600200190000280fd0019
:100a00000281fb000201d000e3408000830141002d
:100a1000130178000201d0000208e1000200360054
:100a2000c188de008109780000000600a340800034
:100a30000000e00003003200930178000000e900ac
:100a4000fdff3a00e1019800140020000222dd00c1
:100a5000f401980000000600e00090000100e000b2
:100a600004003200700190009101780082817100d1
:100a70008308780000000600e00090000100e0001c
:100a800005003200700190000281ea0091017800b7
:100a90008281610083087800000006000000fa00ef
:100aa0009200070001042000a05a2000a6fe0700c3
:100ab00001042000005c2000a3fe070001042000c8
:100ac000205d2000a0fe070001042000405e200001
:100ad0009dfe070001042000605f20009afe0700d1
:100ae000a0802000c2ff07000001eb00812c200045
:100af0000000eb00cdff070012002000812c200039
:100b000010002000c9ff070022002000812c2000d7
:100b100020002000c5ff070032002000812c2000ab
:100b200030002000c1ff070042002000812c20007f
:100b300040002000bdff0700770007008800070085
:100b4000a0862100a4fe07000000eb000080fa0050
:100b5000000006000000fa00a0002000500007007e
:100b60001000200011ff07002000200018ff0700e0
:100b7000004080000000e80000408800f6ff3700d9
:100b80000000fa004001200045000700100020008e
:100b90000fff0700104080000000e80010408800b0
:100ba000f8ff37000000fa00500020003c0007006a
:100bb000b0002000fdfe0700204080000000e8009b
:100bc00020408800f8ff37000000fa0050002000a5
:100bd00033000700304080000000e800304088000b
:100be00080002000f1fe0700f8ff37000000fa0047
:100bf000500020002a000700404080000000e8006c
:100c000040408800faff37003600f800809fbe00a1
:100c1000829fbe00849fbe00869fbe000200fa0035
:100c2000803e2000000f7800d022a8008000200025
:100c3000e7fe07001e0fe9000080eb009e0f10008a
:100c4000fcff3a00d022a90084e0a9000080fa004d
:100c50004f03be004f02be004f01be004f00be005a
:100c60003600f90000400600801f78000200fa00fc
:100c7000401f2000000f7800d042a8001e0fe9009e
:100c80000080eb009e0f1000fcff3a00d042a9004c
:100c90008500a9000080fa004f007800004006009f
:100ca0000400fa001007980008003700803e20007a
:100cb000000f780001003700000000001e0fe9005f
:100cc0000080eb009e0f1000fbff3a001e0090001a
:100cd0000000e900100798001e009000e10f40009e
:100ce000f2ff3a000080fa00000006000000fa005f
:100cf0000080eb00501988000080eb00601988002c
:100d00000000eb00301688000000eb006016880041
:100d10000080fa00000006000000fa000001280030
:100d2000800888000000eb003008880080de2f007b
:100d300060088800710a200091407800f0c8b30074
:100d400000c0600001c3b30001407000a7e0b7001d
:100d500084e0a90094e0a8000080fa0000000600ea
:100d60000000fa0000012800900888000000eb0055
:100d700050088800803e200070088800810a20000a
:100d80009140780080cfb30000c060005040b300b5
:100d9000a8e0b7008500a9009500a8000080fa002f
:100da000000006000000fa0000000000feff37000f
:0c0db0000000fa0000000000feff370009
:020000040000fa
:0200000401f009
:04000c00fbff0000f6
:020000040000fa
:0200000401f009
:04001000bdff000030
:020000040000fa
:0200000401f009
:040014007fff00006a
:020000040000fa
:100008000807000008070000d8060000d206000014
:10001800080700000807000008070000080700009c
:100028000807000008070000080700002003000078
:100038000807000008070000080700000406000081
:100048003406000008070000080700000807000041
:10005800080700000807000008070000080700005c
:10006800080700000807000008070000080700004c
:10007800080700000807000008070000080700003c
:10008800080700000807000008070000080700002c
:10009800080700000807000008070000080700001c
:1000a800080700000807000008070000080700000c
:1000b80008070000080700000807000008070000fc
:1000c80008070000080700000807000008070000ec
:1000d80008070000080700000807000008070000dc
:1000e80008070000080700000807000008070000cc
:1000f80008070000080700000807000008070000bc
:1001080008070000080700000807000008070000ab
:10011800080700000807000008070000080700009b
:10012800080700000807000008070000080700008b
:10013800080700000807000008070000080700007b
:10014800080700000807000008070000080700006b
:10015800080700000807000008070000080700005b
:10016800080700000807000008070000080700004b
:10017800080700000807000008070000080700003b
:10018800080700000807000008070000080700002b
:10019800080700000807000008070000080700001b
:1001a800080700000807000008070000080700000b
:1001b80008070000080700000807000008070000fb
:1001c80008070000080700000807000008070000eb
:1001d80008070000080700000807000008070000db
:1001e80008070000080700000807000008070000cb
:0801f8000807000008070000e1
:020000040000fa
:100208000807000008070000d8060000d206000012
:10021800080700000807000008070000080700009a
:100228000807000008070000080700002003000076
:10023800080700000807000008070000040600007f
:10024800340600000807000008070000080700003f
:10025800080700000807000008070000080700005a
:10026800080700000807000008070000080700004a
:10027800080700000807000008070000080700003a
:10028800080700000807000008070000080700002a
:10029800080700000807000008070000080700001a
:1002a800080700000807000008070000080700000a
:1002b80008070000080700000807000008070000fa
:1002c80008070000080700000807000008070000ea
:1002d80008070000080700000807000008070000da
:1002e80008070000080700000807000008070000ca
:1002f80008070000080700000807000008070000ba
:1003080008070000080700000807000008070000a9
:100318000807000008070000080700000807000099
:100328000807000008070000080700000807000089
:100338000807000008070000080700000807000079
:100348000807000008070000080700000807000069
:100358000807000008070000080700000807000059
:100368000807000008070000080700000807000049
:100378000807000008070000080700000807000039
:100388000807000008070000080700000807000029
:100398000807000008070000080700000807000019
:1003a8000807000008070000080700000807000009
:1003b80008070000080700000807000008070000f9
:1003c80008070000080700000807000008070000e9
:1003d80008070000080700000807000008070000d9
:1003e80008070000080700000807000008070000c9
:0803f8000807000008070000df
:020000040000fa
:100dbc00140800000c0000000200000000000000fd
:100dcc0000000000000000000000000020080000ef
:100ddc000400000000000000000800000a000000f1
:100dec0002000000000000000000000000000000f5
:100dfc00000000000a0800000a00000000000000cb
:040e0c0000000000e2
:020000040000fa
:080e10000040da000000fe00c2
:00000001FF
