:020000040000fa
:080000000002040000000000f2
:020000040000fa
:100400000f8220000e7f22000e01880000000000f5
:100410000c000700606b20000100200011000700a5
:10042000000020000000e000020032000000020096
:1004300000000000a0020200000000000040da00fe
:100440000000fe004440a900000020000000e00081
:100450000300320000002000a00188004440a800f2
:100460000000060091018800800078000000eb0089
:1004700015003700e280400032a0b4009101ba00bc
:10048000e280400032a0b4009102ba00e280400055
:1004900032a0b4000002eb00472bde00f507b200eb
:1004a000602ce10004003a000059eb008301e900f0
:1004b000fdff3e00040037006128e100010032002a
:1004c0000082eb00040007001101ba000200e00006
:1004d000e8ff3a00000006003159ba008301e90044
:1004e0000c0032002159ba008301e90008003200f3
:1004f0000400e00003003a00e280400032a0b400b3
:10050000f5ff370011d9ba008301e900faff3a007c
:100510008100e800e180400032a0b4000000060045
:10052000ec02040000000000fc02040000000000d7
:100530000c030400000000001c0304000000000085
:100540000000fa00aa000700f10f2000c02e2000d2
:10055000c8000700f10f2000c02f2000c5000700d1
:1005600001102000c0302000c20007000110200050
:10057000c0312000bf00070080802000d0010700ac
:100580000001eb00812c20000000eb00db010700e4
:1005900012002000812c200010002000d70107004d
:1005a00022002000812c200020002000d301070021
:1005b00032002000812c200030002000cf010700f5
:1005c00094000700a0862100cd0007000000eb008a
:1005d0000080fa00000006000000fa005000200031
:1005e000620007004180200010c0b300190007001e
:1005f000db000700f9ff37000000fa005000200080
:100600005a0007005180200020c0b30011000700ed
:10061000d3000700f9ff37000000fa005000200067
:10062000520007006180200030c0b30009000700bd
:10063000cb000700f9ff37000000fa00500020004f
:100640004a00070007c8bf000040e80007e8b700fd
:10065000faff37000400fa00004f780011079800f5
:10066000008020002201070010c0b3009e4f100040
:1006700009003a00d022a800401f20003b000700dc
:100680001e009000104078008040e8001e0090009e
:10069000014878001800370020c0b3009e4f1000ba
:1006a00009003a00d042a800001920002f000700de
:1006b0001e009000104078008040e9001e0090006d
:1006c000014878000c00370030c0b3009e4f100086
:1006d00009003a00d062a800c012200023000700e1
:1006e0001e0090001040780000c0e80080407800b4
:1006f0001e00900001487800d062a900d0c2bf005f
:100700000080fb004300de0061406000614060004b
:100710004201dd00012d200091407800b0cfb300f0
:1007200000c0600002407000d0e2b700d0c2bf003d
:100730000080fb004200de0061406000614060001c
:1007400000414000012d200091407800d0cfb3003f
:1007500000c0600002407000d0e2b70000802000be
:10076000f60007000080fa00000006000400fa000e
:10077000100798000800370040062000000f78009e
:1007800001003700000000001e0fe9000080eb00b0
:100790009e0f1000fbff3a001e0090000000e900d1
:1007a000100798001e009000e10f4000f2ff3a0091
:1007b0000080fa0000000600801f78000200fa00a6
:1007c00040062000000f7800d082a8001e0fe9002c
:1007d0000080eb009e0f1000fcff3a00d082a900c1
:1007e00084e0a9000080fa004f0078000040060075
:1007f0000000fa000080eb00601988000000eb00a8
:10080000301688000000eb00601688000080fa00b7
:10081000000006000000fa0000012800800888009f
:100820000000eb003008880000ee2200600888001d
:10083000710a200091407800f0c8b30000c0600049
:1008400001c3b30001407000a7e0b70084e0a90035
:1008500094e0a8000080fa00000006000000fa0002
:1008600000000000feff37000000fa00000000005a
:10087000feff37008100d0000f07780064075700a3
:100880000e0278008f8740000f06780001000900f3
:10089000be1f78009e0f7800f44088001008e20028
:1008a00002003a00844088008002eb000c1a7800b5
:1008b000e4408800041a7800050178008502e80009
:1008c0000280fd0002c0b300021a78006400b0008c
:1008d0004400b000001a7800001aeb00410220002a
:1008e0000482400021028000011a7800a1018000ea
:1008f000011a7800e14080008408780000000600ba
:10090000100888000021ef00a580a800a5a0a9007c
:10091000a5c0a9008460a9009460a8000001280077
:1009200020088800f24080008040800000097800a4
:10093000fd000700e04088001ca8ec000001b000aa
:100940004000b0008007780000400600e2408000d0
:100950000281e900500198003000200040419800d9
:1009600042a0a8000021ef008460a9004200f80026
:10097000801f7800000e20004260b700811f7800c1
:10098000829fbe00849fbe00869fbe00889fbe00df
:100990008a9fbe008c9fbe008e1f78003600f80034
:1009a0003200f8004400f8003400f800e040800015
:1009b0000f0878000080e900e30007001808e20053
:1009c0000200320080805700bf000700100078004e
:1009d000c0409000600ce1000a003200630ce100ae
:1009e000faff3a00d00090000100e000030032005e
:1009f0008100e90051009800f4ff37000100200059
:100a000041409800c80007000080e800e0408800ee
:100a1000900778003400f9004400f9003200f90032
:100a20003600f9004f0778004f06be004f05be00a4
:100a30004f04be004f03be004f02be004f01be0078
:100a40004f00be004200f90000400600801f780001
:100a500010028000f0408800000e20004260b700c5
:100a60004f00780000000600801f7800f0408000f2
:100a7000100288004f007800000006009460a90072
:100a8000e24080000281e90040019800200020003f
:100a9000404198009460a800b1ff070000000600e4
:100aa0009460a900e14080008180e90001017800a4
:100ab000910078000080ea00c1419000621ce100d2
:100ac00006003a00c101900083016000c300980055
:100ad00002003a0003002000c34098009100780013
:100ae0000208e100f4ff3a009460a800000006004c
:100af0009460a900e14080008180e900b000980086
:100b00001000e0000a00320012002000c2409800ed
:100b10009460a80092ff07009460a9001000e00014
:100b20000300320012002000c2409800f8ff370096
:100b30001008e8009460a800000006009460a90076
:100b4000e14080008180e900010278009100780096
:100b50000008eb00414190006114e10005003a00fb
:100b6000310190000200e10002003a000200200082
:100b7000c2409800910078000408e100f5ff3a00b7
:100b80009460a800000006008180fb000100a7001f
:100b90008100e800e6814000020180000281e80057
:100ba00003015100a440800004097800a24088009d
:100bb0000282e900040188000080fb00002978001f
:100bc00001297800000006002d0007004200f8000f
:100bd000350007000380090031587800100020001c
:100be000304298004200f90000000600240007008f
:100bf0004200f8002c000700030ce10004003e0056
:100c000000c04000024878001000200001003700ba
:100c10000000eb004200f900000006001800070089
:100c20004200f8002000070003800900b058780057
:100c30008001eb0033429800100020004200f900d0
:100c4000000006000e0007004200f8001600070032
:100c5000030ce10003003e0000c04000104078009b
:100c6000010037000000eb004200f9000000060020
:100c7000030007000000eb00344090000000060075
:100c8000a4408000a44190000304e100050032006c
:100c9000140278000400e000faff3a004f00be00a2
:100ca0000000eb0000000600000e20004260b700cc
:100cb00066004200a40190008301e90000000600e4
:100cc000c040880000000600200190000280fd0066
:100cd0000281fb000201d000c3408000830141007b
:100ce000130178000201d0000208e1000200360082
:100cf000c188de0081097800000006008340800082
:100d00000000e00003003200930178000000e900d9
:100d1000fdff3a00e1019800140020000222dd00ee
:100d2000f401980000000600e00090000100e000df
:100d300004003200700190009101780082817100fe
:100d40008308780000000600e00090000100e00049
:100d500005003200700190000281ea0091017800e4
:0c0d60008281610083087800000006001a
:020000040000fa
:020000040002f8
:04aff800befa00009d
:020000040000fa
:020000040002f8
:04affc007f3f000093
:020000040000fa
:10000800de060000de060000340400002e040000b6
:10001800de060000de060000de060000de06000048
:10002800de060000de060000de060000b404000064
:10003800de060000de060000de060000dc0300002d
:10004800de060000de060000de060000de06000018
:10005800de060000de060000de060000de06000008
:10006800de060000de060000de060000de060000f8
:10007800de060000de060000de060000de060000e8
:10008800de060000de060000de060000de060000d8
:10009800de060000de060000de060000de060000c8
:1000a800de060000de060000de060000de060000b8
:1000b800de060000de060000de060000de060000a8
:1000c800de060000de060000de060000de06000098
:1000d800de060000de060000de060000de06000088
:1000e800de060000de060000de060000de06000078
:1000f800de060000de060000de060000de06000068
:10010800de060000de060000de060000de06000057
:10011800de060000de060000de060000de06000047
:10012800de060000de060000de060000de06000037
:10013800de060000de060000de060000de06000027
:10014800de060000de060000de060000de06000017
:10015800de060000de060000de060000de06000007
:10016800de060000de060000de060000de060000f7
:10017800de060000de060000de060000de060000e7
:10018800de060000de060000de060000de060000d7
:10019800de060000de060000de060000de060000c7
:1001a800de060000de060000de060000de060000b7
:1001b800de060000de060000de060000de060000a7
:1001c800de060000de060000de060000de06000097
:1001d800de060000de060000de060000de06000087
:1001e800de060000de060000de060000de06000077
:0801f800de060000de06000037
:020000040000fa
:10020800de060000de060000340400002e040000b4
:10021800de060000de060000de060000de06000046
:10022800de060000de060000de060000b404000062
:10023800de060000de060000de060000dc0300002b
:10024800de060000de060000de060000de06000016
:10025800de060000de060000de060000de06000006
:10026800de060000de060000de060000de060000f6
:10027800de060000de060000de060000de060000e6
:10028800de060000de060000de060000de060000d6
:10029800de060000de060000de060000de060000c6
:1002a800de060000de060000de060000de060000b6
:1002b800de060000de060000de060000de060000a6
:1002c800de060000de060000de060000de06000096
:1002d800de060000de060000de060000de06000086
:1002e800de060000de060000de060000de06000076
:1002f800de060000de060000de060000de06000066
:10030800de060000de060000de060000de06000055
:10031800de060000de060000de060000de06000045
:10032800de060000de060000de060000de06000035
:10033800de060000de060000de060000de06000025
:10034800de060000de060000de060000de06000015
:10035800de060000de060000de060000de06000005
:10036800de060000de060000de060000de060000f5
:10037800de060000de060000de060000de060000e5
:10038800de060000de060000de060000de060000d5
:10039800de060000de060000de060000de060000c5
:1003a800de060000de060000de060000de060000b5
:1003b800de060000de060000de060000de060000a5
:1003c800de060000de060000de060000de06000095
:1003d800de060000de060000de060000de06000085
:1003e800de060000de060000de060000de06000075
:0803f800de060000de06000035
:020000040000fa
:100d6c000008000008000000020000000000000065
:100d7c00000000000000000008080000080000004f
:100d8c0000000000100800000c0000000200000031
:100d9c000000000000000000000000000000000047
:100dac001c0800000400000000000000000000000f
:020000040000fa
:080dbc000040da000000fe0017
:00000001FF
